{
  "abi": [
    {
      "type": "constructor",
      "inputs": [
        {
          "name": "oracle_",
          "type": "address",
          "internalType": "address"
        },
        {
          "name": "pairs_",
          "type": "uint256[]",
          "internalType": "uint256[]"
        },
        {
          "name": "startTime_",
          "type": "uint256",
          "internalType": "uint256"
        }
      ],
      "stateMutability": "nonpayable"
    },
    {
      "type": "function",
      "name": "allPairs",
      "inputs": [
        {
          "name": "",
          "type": "uint256",
          "internalType": "uint256"
        }
      ],
      "outputs": [
        {
          "name": "",
          "type": "uint256",
          "internalType": "uint256"
        }
      ],
      "stateMutability": "view"
    },
    {
      "type": "function",
      "name": "currentPairIndex",
      "inputs": [],
      "outputs": [
        {
          "name": "",
          "type": "int256",
          "internalType": "int256"
        }
      ],
      "stateMutability": "view"
    },
    {
      "type": "function",
      "name": "getUserGuesses",
      "inputs": [
        {
          "name": "user",
          "type": "address",
          "internalType": "address"
        }
      ],
      "outputs": [
        {
          "name": "",
          "type": "tuple[]",
          "internalType": "struct OracleGame.UserGuess[]",
          "components": [
            {
              "name": "pair",
              "type": "uint256",
              "internalType": "uint256"
            },
            {
              "name": "timestamp",
              "type": "uint256",
              "internalType": "uint256"
            },
            {
              "name": "price",
              "type": "uint256",
              "internalType": "uint256"
            },
            {
              "name": "rewarded",
              "type": "bool",
              "internalType": "bool"
            }
          ]
        }
      ],
      "stateMutability": "view"
    },
    {
      "type": "function",
      "name": "getUserParticipation",
      "inputs": [
        {
          "name": "users",
          "type": "address[]",
          "internalType": "address[]"
        }
      ],
      "outputs": [
        {
          "name": "",
          "type": "bool[]",
          "internalType": "bool[]"
        }
      ],
      "stateMutability": "view"
    },
    {
      "type": "function",
      "name": "guessPairPrice",
      "inputs": [
        {
          "name": "price",
          "type": "uint256",
          "internalType": "uint256"
        }
      ],
      "outputs": [],
      "stateMutability": "nonpayable"
    },
    {
      "type": "function",
      "name": "guessWaitTime",
      "inputs": [],
      "outputs": [
        {
          "name": "",
          "type": "uint256",
          "internalType": "uint256"
        }
      ],
      "stateMutability": "view"
    },
    {
      "type": "function",
      "name": "oracle",
      "inputs": [],
      "outputs": [
        {
          "name": "",
          "type": "address",
          "internalType": "contract ISupraOraclePull"
        }
      ],
      "stateMutability": "view"
    },
    {
      "type": "function",
      "name": "pairDuration",
      "inputs": [],
      "outputs": [
        {
          "name": "",
          "type": "uint256",
          "internalType": "uint256"
        }
      ],
      "stateMutability": "view"
    },
    {
      "type": "function",
      "name": "priceGuesses",
      "inputs": [
        {
          "name": "",
          "type": "uint256",
          "internalType": "uint256"
        }
      ],
      "outputs": [
        {
          "name": "firstGuesser",
          "type": "address",
          "internalType": "address"
        },
        {
          "name": "lastGuesser",
          "type": "address",
          "internalType": "address"
        },
        {
          "name": "lastTimestamp",
          "type": "uint256",
          "internalType": "uint256"
        }
      ],
      "stateMutability": "view"
    },
    {
      "type": "function",
      "name": "pullPairPrices",
      "inputs": [
        {
          "name": "_bytesProof",
          "type": "bytes",
          "internalType": "bytes"
        }
      ],
      "outputs": [],
      "stateMutability": "nonpayable"
    },
    {
      "type": "function",
      "name": "startTime",
      "inputs": [],
      "outputs": [
        {
          "name": "",
          "type": "uint256",
          "internalType": "uint256"
        }
      ],
      "stateMutability": "view"
    },
    {
      "type": "function",
      "name": "userParticipated",
      "inputs": [
        {
          "name": "",
          "type": "address",
          "internalType": "address"
        }
      ],
      "outputs": [
        {
          "name": "",
          "type": "bool",
          "internalType": "bool"
        }
      ],
      "stateMutability": "view"
    },
    {
      "type": "function",
      "name": "userPoints",
      "inputs": [
        {
          "name": "",
          "type": "address",
          "internalType": "address"
        }
      ],
      "outputs": [
        {
          "name": "",
          "type": "uint256",
          "internalType": "uint256"
        }
      ],
      "stateMutability": "view"
    },
    {
      "type": "event",
      "name": "GuessPairPrice",
      "inputs": [
        {
          "name": "guesser",
          "type": "address",
          "indexed": true,
          "internalType": "address"
        },
        {
          "name": "pair",
          "type": "uint256",
          "indexed": true,
          "internalType": "uint256"
        },
        {
          "name": "price",
          "type": "uint256",
          "indexed": false,
          "internalType": "uint256"
        }
      ],
      "anonymous": false
    },
    {
      "type": "event",
      "name": "RewardPairGuess",
      "inputs": [
        {
          "name": "guesser",
          "type": "address",
          "indexed": true,
          "internalType": "address"
        },
        {
          "name": "pair",
          "type": "uint256",
          "indexed": true,
          "internalType": "uint256"
        },
        {
          "name": "guessPrice",
          "type": "uint256",
          "indexed": false,
          "internalType": "uint256"
        },
        {
          "name": "actualPrice",
          "type": "uint256",
          "indexed": false,
          "internalType": "uint256"
        },
        {
          "name": "points",
          "type": "uint256",
          "indexed": false,
          "internalType": "uint256"
        }
      ],
      "anonymous": false
    }
  ],
  "bytecode": {
    "object": "0x60c06040525f19600155348015610014575f80fd5b506040516113bd3803806113bd833981016040819052610033916100cf565b6001600160a01b0383166080528151610052905f90602085019061005e565b5060a052506101b19050565b828054828255905f5260205f20908101928215610097579160200282015b8281111561009757825182559160200191906001019061007c565b506100a39291506100a7565b5090565b5b808211156100a3575f81556001016100a8565b634e487b7160e01b5f52604160045260245ffd5b5f805f606084860312156100e1575f80fd5b83516001600160a01b03811681146100f7575f80fd5b602085810151919450906001600160401b0380821115610115575f80fd5b818701915087601f830112610128575f80fd5b81518181111561013a5761013a6100bb565b8060051b604051601f19603f8301168101818110858211171561015f5761015f6100bb565b60405291825284820192508381018501918a83111561017c575f80fd5b938501935b8285101561019a57845184529385019392850192610181565b809750505050505050604084015190509250925092565b60805160a0516111cf6101ee5f395f8181610134015281816102930152818161052e0152610c1401525f81816101bc015261037e01526111cf5ff3fe608060405234801561000f575f80fd5b50600436106100cb575f3560e01c80637bd8c75d11610088578063c78aa48d11610063578063c78aa48d14610200578063d7a2fee014610220578063d9b806fb14610240578063f50ddbc714610272575f80fd5b80637bd8c75d146101565780637dc0d1d0146101b7578063b9f21e2d146101f6575f80fd5b8063100b489f146100cf5780631e3dd18b146100e45780632ba122cc1461010a57806340881f001461011d5780636176593d1461012657806378e979251461012f575b5f80fd5b6100e26100dd366004610c99565b610291565b005b6100f76100f2366004610d05565b61050e565b6040519081526020015b60405180910390f35b6100e2610118366004610d05565b61052c565b6100f7610e1081565b6100f760015481565b6100f77f000000000000000000000000000000000000000000000000000000000000000081565b610191610164366004610d05565b60046020525f90815260409020805460018201546003909201546001600160a01b03918216929091169083565b604080516001600160a01b03948516815293909216602084015290820152606001610101565b6101de7f000000000000000000000000000000000000000000000000000000000000000081565b6040516001600160a01b039091168152602001610101565b6100f76201518081565b61021361020e366004610d1c565b6107ac565b6040516101019190610d49565b61023361022e366004610dae565b610911565b6040516101019190610e0b565b61026261024e366004610d1c565b60036020525f908152604090205460ff1681565b6040519015158152602001610101565b6100f7610280366004610d1c565b60026020525f908152604090205481565b7f000000000000000000000000000000000000000000000000000000000000000042101580156102c357505f60015412155b61030f5760405162461bcd60e51b815260206004820152601860248201527711d85b59481a185cc81b9bdd081cdd185c9d1959081e595d60421b60448201526064015b60405180910390fd5b5f805f6001548154811061032557610325610e50565b905f5260205f20015490505f6001541315610365575f600180546103499190610e78565b8154811061035957610359610e50565b905f5260205f20015491505b604051632ce81dbd60e21b81525f906001600160a01b037f0000000000000000000000000000000000000000000000000000000000000000169063b3a076f4906103b59088908890600401610e9e565b5f604051808303815f875af11580156103d0573d5f803e3d5ffd5b505050506040513d5f823e601f3d908101601f191682016040526103f79190810190610fa4565b90505f195f5b8251518110156104c6575f600154138015610433575084835f0151828151811061042957610429610e50565b6020026020010151145b1561047d5761047d858460200151838151811061045257610452610e50565b60200260200101518560400151848151811061047057610470610e50565b60200260200101516109e2565b83835f0151828151811061049357610493610e50565b6020026020010151036104be576104ba848460200151838151811061045257610452610e50565b8091505b6001016103fd565b5080196105065760405162461bcd60e51b815260206004820152600e60248201526d14185a5c881b9bdd08199bdd5b9960921b6044820152606401610306565b505050505050565b5f818154811061051c575f80fd5b5f91825260209091200154905081565b7f00000000000000000000000000000000000000000000000000000000000000004210156105975760405162461bcd60e51b815260206004820152601860248201527711d85b59481a185cc81b9bdd081cdd185c9d1959081e595d60421b6044820152606401610306565b5f81116105e65760405162461bcd60e51b815260206004820152601c60248201527f5072696365206d7573742062652067726561746572207468616e2030000000006044820152606401610306565b6105ee610c0a565b5f806001548154811061060357610603610e50565b5f9182526020808320909101548083526004825260408084203385526002019092529120600101549091501561066d5760405162461bcd60e51b815260206004820152600f60248201526e105b1c9958591e4819dd595cdcd959608a1b6044820152606401610306565b6040805160608101825242815260208082018581525f838501818152868252600480855286832033845260028082018752978420965187559351600187015590519490950180546001600160a01b0319166001600160a01b039586161790558590529290529054166106fb575f81815260046020526040902080546001600160a01b03191633179055610738565b5f81815260046020908152604080832060018101546001600160a01b0316845260029081019092529091200180546001600160a01b031916331790555b5f818152600460209081526040808320600190810180546001600160a01b031916339081179091558085526003845293829020805460ff19169091179055518481528392917f4b74ca48c1a4fff851aa8a7f55b9ba7f4077e195d8f46d60f263df4a07893010910160405180910390a35050565b60605f60015460016107be9190611052565b90505f8167ffffffffffffffff8111156107da576107da610ecc565b60405190808252806020026020018201604052801561083457816020015b61082160405180608001604052805f81526020015f81526020015f81526020015f151581525090565b8152602001906001900390816107f85790505b5090505f5b82811015610909575f80828154811061085457610854610e50565b5f91825260208083209091015480835260048252604080842060038101546001600160a01b038c168652600290910190935290922060018101549293509091156108fb576040518060800160405280848152602001825f01548152602001826001015481526020015f841180156108d857508254610e10906108d69086611065565b115b15158152508585815181106108ef576108ef610e50565b60200260200101819052505b505050806001019050610839565b509392505050565b60605f8267ffffffffffffffff81111561092d5761092d610ecc565b604051908082528060200260200182016040528015610956578160200160208202803683370190505b5090505f5b838110156109d85760035f86868481811061097857610978610e50565b905060200201602081019061098d9190610d1c565b6001600160a01b0316815260208101919091526040015f2054825160ff909116908390839081106109c0576109c0610e50565b9115156020928302919091019091015260010161095b565b5090505b92915050565b5f83815260046020526040902080546001600160a01b03168015610c03576012831115610a2c57610a14601284611065565b610a1f90600a611158565b610a299085611163565b93505b6012831015610a5857610a40836012611065565b610a4b90600a611158565b610a559085611182565b93505b6001600160a01b03811615610bd2576001600160a01b0381165f90815260028301602052604090208054610e1090610a909042611065565b1115610bad575f85826001015411610ab6576001820154610ab19087611065565b610ac6565b858260010154610ac69190611065565b90505f8115610af55786610adb836064611182565b610ae59190611163565b610af0906001611052565b610af7565b5f5b90505f610b05826002611158565b610b1290620f4240611163565b6001600160a01b0386165f90815260026020526040812080549293508392909190610b3e908490611052565b9091555050600184015460408051918252602082018a9052810182905289906001600160a01b038716907f80f42ab98cc5b8c337cf27ea9660dae771d2867a74b4aa2efe8041e05be9ca329060600160405180910390a350505060028101546001600160a01b03169150610bcc565b5081546001600160a01b0319166001600160a01b038216178255610bd2565b50610a58565b6001600160a01b038116610bfc5781546001600160a01b0319908116835560018301805490911690555b4260038301555b5050505050565b5f62015180610c397f000000000000000000000000000000000000000000000000000000000000000042611065565b610c439190611163565b9050600154811315610c96575f548112610c905760405162461bcd60e51b815260206004820152600e60248201526d11d85b59481a185cc8195b99195960921b6044820152606401610306565b60018190555b50565b5f8060208385031215610caa575f80fd5b823567ffffffffffffffff80821115610cc1575f80fd5b818501915085601f830112610cd4575f80fd5b813581811115610ce2575f80fd5b866020828501011115610cf3575f80fd5b60209290920196919550909350505050565b5f60208284031215610d15575f80fd5b5035919050565b5f60208284031215610d2c575f80fd5b81356001600160a01b0381168114610d42575f80fd5b9392505050565b602080825282518282018190525f919060409081850190868401855b82811015610da1578151805185528681015187860152858101518686015260609081015115159085015260809093019290850190600101610d65565b5091979650505050505050565b5f8060208385031215610dbf575f80fd5b823567ffffffffffffffff80821115610dd6575f80fd5b818501915085601f830112610de9575f80fd5b813581811115610df7575f80fd5b8660208260051b8501011115610cf3575f80fd5b602080825282518282018190525f9190848201906040850190845b81811015610e44578351151583529284019291840191600101610e26565b50909695505050505050565b634e487b7160e01b5f52603260045260245ffd5b634e487b7160e01b5f52601160045260245ffd5b8181035f831280158383131683831282161715610e9757610e97610e64565b5092915050565b60208152816020820152818360408301375f818301604090810191909152601f909201601f19160101919050565b634e487b7160e01b5f52604160045260245ffd5b6040516060810167ffffffffffffffff81118282101715610f0357610f03610ecc565b60405290565b5f82601f830112610f18575f80fd5b8151602067ffffffffffffffff80831115610f3557610f35610ecc565b8260051b604051601f19603f83011681018181108482111715610f5a57610f5a610ecc565b6040529384526020818701810194908101925087851115610f79575f80fd5b6020870191505b84821015610f9957815183529183019190830190610f80565b979650505050505050565b5f60208284031215610fb4575f80fd5b815167ffffffffffffffff80821115610fcb575f80fd5b9083019060608286031215610fde575f80fd5b610fe6610ee0565b825182811115610ff4575f80fd5b61100087828601610f09565b825250602083015182811115611014575f80fd5b61102087828601610f09565b602083015250604083015182811115611037575f80fd5b61104387828601610f09565b60408301525095945050505050565b808201808211156109dc576109dc610e64565b818103818111156109dc576109dc610e64565b600181815b808511156110b257815f190482111561109857611098610e64565b808516156110a557918102915b93841c939080029061107d565b509250929050565b5f826110c8575060016109dc565b816110d457505f6109dc565b81600181146110ea57600281146110f457611110565b60019150506109dc565b60ff84111561110557611105610e64565b50506001821b6109dc565b5060208310610133831016604e8410600b8410161715611133575081810a6109dc565b61113d8383611078565b805f190482111561115057611150610e64565b029392505050565b5f610d4283836110ba565b5f8261117d57634e487b7160e01b5f52601260045260245ffd5b500490565b80820281158282048414176109dc576109dc610e6456fea2646970667358221220158da74ec02e3560e6cb9f58e698f14173d463146dd738887fffb9627cdaa8a864736f6c63430008190033",
    "linkReferences": {}
  },
  "methodIdentifiers": {
    "allPairs(uint256)": "1e3dd18b",
    "currentPairIndex()": "6176593d",
    "getUserGuesses(address)": "c78aa48d",
    "getUserParticipation(address[])": "d7a2fee0",
    "guessPairPrice(uint256)": "2ba122cc",
    "guessWaitTime()": "40881f00",
    "oracle()": "7dc0d1d0",
    "pairDuration()": "b9f21e2d",
    "priceGuesses(uint256)": "7bd8c75d",
    "pullPairPrices(bytes)": "100b489f",
    "startTime()": "78e97925",
    "userParticipated(address)": "d9b806fb",
    "userPoints(address)": "f50ddbc7"
  },
  "id": 60
}