{
  "abi": [
    {
      "type": "constructor",
      "inputs": [
        {
          "name": "_admin",
          "type": "address",
          "internalType": "address"
        },
        {
          "name": "checkInContract",
          "type": "address",
          "internalType": "address"
        },
        {
          "name": "tokenNames",
          "type": "string[]",
          "internalType": "string[]"
        },
        {
          "name": "tokenAddresses",
          "type": "address[]",
          "internalType": "address[]"
        }
      ],
      "stateMutability": "nonpayable"
    },
    {
      "type": "receive",
      "stateMutability": "payable"
    },
    {
      "type": "function",
      "name": "ETH_ADDRESS",
      "inputs": [],
      "outputs": [
        {
          "name": "",
          "type": "address",
          "internalType": "address"
        }
      ],
      "stateMutability": "view"
    },
    {
      "type": "function",
      "name": "admin",
      "inputs": [],
      "outputs": [
        {
          "name": "",
          "type": "address",
          "internalType": "address"
        }
      ],
      "stateMutability": "view"
    },
    {
      "type": "function",
      "name": "checkIn",
      "inputs": [],
      "outputs": [
        {
          "name": "",
          "type": "address",
          "internalType": "contract ICheckIn"
        }
      ],
      "stateMutability": "view"
    },
    {
      "type": "function",
      "name": "etherAmount",
      "inputs": [],
      "outputs": [
        {
          "name": "",
          "type": "uint256",
          "internalType": "uint256"
        }
      ],
      "stateMutability": "view"
    },
    {
      "type": "function",
      "name": "getToken",
      "inputs": [
        {
          "name": "token",
          "type": "string",
          "internalType": "string"
        },
        {
          "name": "salt",
          "type": "bytes32",
          "internalType": "bytes32"
        },
        {
          "name": "signature",
          "type": "bytes",
          "internalType": "bytes"
        }
      ],
      "outputs": [],
      "stateMutability": "nonpayable"
    },
    {
      "type": "function",
      "name": "setCheckInContract",
      "inputs": [
        {
          "name": "newCheckInContract",
          "type": "address",
          "internalType": "address"
        }
      ],
      "outputs": [],
      "stateMutability": "nonpayable"
    },
    {
      "type": "function",
      "name": "setEtherAmount",
      "inputs": [
        {
          "name": "amount",
          "type": "uint256",
          "internalType": "uint256"
        }
      ],
      "outputs": [],
      "stateMutability": "nonpayable"
    },
    {
      "type": "function",
      "name": "setTokenAmount",
      "inputs": [
        {
          "name": "amount",
          "type": "uint256",
          "internalType": "uint256"
        }
      ],
      "outputs": [],
      "stateMutability": "nonpayable"
    },
    {
      "type": "function",
      "name": "tokenAmount",
      "inputs": [],
      "outputs": [
        {
          "name": "",
          "type": "uint256",
          "internalType": "uint256"
        }
      ],
      "stateMutability": "view"
    },
    {
      "type": "function",
      "name": "tokens",
      "inputs": [
        {
          "name": "",
          "type": "string",
          "internalType": "string"
        }
      ],
      "outputs": [
        {
          "name": "",
          "type": "address",
          "internalType": "address"
        }
      ],
      "stateMutability": "view"
    },
    {
      "type": "function",
      "name": "transferAdmin",
      "inputs": [
        {
          "name": "newAdmin",
          "type": "address",
          "internalType": "address"
        }
      ],
      "outputs": [],
      "stateMutability": "nonpayable"
    },
    {
      "type": "function",
      "name": "usedNonces",
      "inputs": [
        {
          "name": "",
          "type": "bytes32",
          "internalType": "bytes32"
        }
      ],
      "outputs": [
        {
          "name": "",
          "type": "bool",
          "internalType": "bool"
        }
      ],
      "stateMutability": "view"
    },
    {
      "type": "function",
      "name": "withdrawToken",
      "inputs": [
        {
          "name": "token",
          "type": "string",
          "internalType": "string"
        },
        {
          "name": "amount",
          "type": "uint256",
          "internalType": "uint256"
        },
        {
          "name": "recipient",
          "type": "address",
          "internalType": "address payable"
        }
      ],
      "outputs": [],
      "stateMutability": "nonpayable"
    },
    {
      "type": "event",
      "name": "AdminChanged",
      "inputs": [
        {
          "name": "oldAdmin",
          "type": "address",
          "indexed": true,
          "internalType": "address"
        },
        {
          "name": "newAdmin",
          "type": "address",
          "indexed": true,
          "internalType": "address"
        }
      ],
      "anonymous": false
    },
    {
      "type": "event",
      "name": "CheckInContractChanged",
      "inputs": [
        {
          "name": "oldCheckInContract",
          "type": "address",
          "indexed": true,
          "internalType": "address"
        },
        {
          "name": "newCheckInContract",
          "type": "address",
          "indexed": true,
          "internalType": "address"
        }
      ],
      "anonymous": false
    },
    {
      "type": "event",
      "name": "TokenSent",
      "inputs": [
        {
          "name": "recipient",
          "type": "address",
          "indexed": true,
          "internalType": "address"
        },
        {
          "name": "amount",
          "type": "uint256",
          "indexed": false,
          "internalType": "uint256"
        },
        {
          "name": "tokenName",
          "type": "string",
          "indexed": false,
          "internalType": "string"
        }
      ],
      "anonymous": false
    },
    {
      "type": "event",
      "name": "Withdrawn",
      "inputs": [
        {
          "name": "recipient",
          "type": "address",
          "indexed": true,
          "internalType": "address"
        },
        {
          "name": "amount",
          "type": "uint256",
          "indexed": false,
          "internalType": "uint256"
        },
        {
          "name": "tokenName",
          "type": "string",
          "indexed": false,
          "internalType": "string"
        }
      ],
      "anonymous": false
    },
    {
      "type": "error",
      "name": "ECDSAInvalidSignature",
      "inputs": []
    },
    {
      "type": "error",
      "name": "ECDSAInvalidSignatureLength",
      "inputs": [
        {
          "name": "length",
          "type": "uint256",
          "internalType": "uint256"
        }
      ]
    },
    {
      "type": "error",
      "name": "ECDSAInvalidSignatureS",
      "inputs": [
        {
          "name": "s",
          "type": "bytes32",
          "internalType": "bytes32"
        }
      ]
    }
  ],
  "bytecode": {
    "object": "0x608060405266038d7ea4c680005f556103e860015534801561001f575f80fd5b506040516118a23803806118a283398101604081905261003e9161044d565b6001600160a01b0384166100995760405162461bcd60e51b815260206004820152601f60248201527f41646d696e2061646472657373206d757374206e6f7420626520656d7074790060448201526064015b60405180910390fd5b6001600160a01b0383166101025760405162461bcd60e51b815260206004820152602a60248201527f436865636b496e20636f6e74726163742061646472657373206d757374206e6f6044820152697420626520656d70747960b01b6064820152608401610090565b5f8251116101525760405162461bcd60e51b815260206004820152601d60248201527f546f6b656e206e616d6573206d757374206e6f7420626520656d7074790000006044820152606401610090565b80518251146101bd5760405162461bcd60e51b815260206004820152603160248201527f4c656e677468206f6620746f6b656e206e616d657320616e64206164647265736044820152701cd95cc81b5d5cdd08189948195c5d585b607a1b6064820152608401610090565b600280546001600160a01b038087166001600160a01b03199283161790925560038054928616929091169190911790556040515f90610208906020016208aa8960eb1b815260030190565b6040516020818303038152906040528051906020012090505f5b835181101561032c578184828151811061023e5761023e610589565b602002602001015180519060200120036102b1576001600485838151811061026857610268610589565b602002602001015160405161027d919061059d565b90815260405190819003602001902080546001600160a01b03929092166001600160a01b0319909216919091179055610324565b8281815181106102c3576102c3610589565b602002602001015160048583815181106102df576102df610589565b60200260200101516040516102f4919061059d565b90815260405190819003602001902080546001600160a01b03929092166001600160a01b03199092169190911790555b600101610222565b5050505050506105b8565b80516001600160a01b038116811461034d575f80fd5b919050565b634e487b7160e01b5f52604160045260245ffd5b604051601f8201601f191681016001600160401b038111828210171561038e5761038e610352565b604052919050565b5f6001600160401b038211156103ae576103ae610352565b5060051b60200190565b5f5b838110156103d25781810151838201526020016103ba565b50505f910152565b5f82601f8301126103e9575f80fd5b815160206103fe6103f983610396565b610366565b8083825260208201915060208460051b87010193508684111561041f575f80fd5b602086015b848110156104425761043581610337565b8352918301918301610424565b509695505050505050565b5f805f8060808587031215610460575f80fd5b61046985610337565b93506020610478818701610337565b60408701519094506001600160401b0380821115610494575f80fd5b818801915088601f8301126104a7575f80fd5b81516104b56103f982610396565b81815260059190911b8301840190848101908b8311156104d3575f80fd5b8585015b83811015610556578051858111156104ed575f80fd5b8601603f81018e136104fd575f80fd5b878101518681111561051157610511610352565b610523601f8201601f19168a01610366565b8181528f6040838501011115610537575f80fd5b610547828b8301604086016103b8565b855250509186019186016104d7565b5060608b0151909750945050508083111561056f575f80fd5b505061057d878288016103da565b91505092959194509250565b634e487b7160e01b5f52603260045260245ffd5b5f82516105ae8184602087016103b8565b9190910192915050565b6112dd806105c55f395ff3fe6080604052600436106100c2575f3560e01c806375829def1161007c578063dd74885d11610057578063dd74885d1461021c578063eec7faa11461023b578063f851a44014610250578063feb617241461026f575f80fd5b806375829def146101ca578063a734f06e146101e9578063d2b9c6be146101fd575f80fd5b806304c2320b146100cd5780630749469f1461012a578063103fc4521461014b578063183ff0851461016a5780634935ce6f1461018957806373acd5bb146101ab575f80fd5b366100c957005b5f80fd5b3480156100d8575f80fd5b5061010d6100e7366004610e41565b80516020818301810180516004825292820191909301209152546001600160a01b031681565b6040516001600160a01b0390911681526020015b60405180910390f35b348015610135575f80fd5b50610149610144366004610eec565b6102ad565b005b348015610156575f80fd5b50610149610165366004610f48565b6102e5565b348015610175575f80fd5b5060035461010d906001600160a01b031681565b348015610194575f80fd5b5061019d5f5481565b604051908152602001610121565b3480156101b6575f80fd5b506101496101c5366004610fd3565b61078e565b3480156101d5575f80fd5b506101496101e4366004610fd3565b610880565b3480156101f4575f80fd5b5061010d600181565b348015610208575f80fd5b50610149610217366004610ff5565b610967565b348015610227575f80fd5b50610149610236366004610eec565b610bd6565b348015610246575f80fd5b5061019d60015481565b34801561025b575f80fd5b5060025461010d906001600160a01b031681565b34801561027a575f80fd5b5061029d610289366004610eec565b60056020525f908152604090205460ff1681565b6040519015158152602001610121565b6002546001600160a01b031633146102e05760405162461bcd60e51b81526004016102d790611050565b60405180910390fd5b600155565b84848484845f338686866040516020016103029493929190611091565b60408051601f1981840301815291815281516020928301205f818152600590935291205490915060ff16156103795760405162461bcd60e51b815260206004820152601960248201527f5369676e617475726520697320616c726561647920757365640000000000000060448201526064016102d7565b600254604080516020601f86018190048102820181019092528481526001600160a01b03909216916103d09186908690819084018382808284375f920191909152506103ca9250869150610c049050565b90610c36565b6001600160a01b0316146104265760405162461bcd60e51b815260206004820152601760248201527f496e76616c69642061646d696e207369676e617475726500000000000000000060448201526064016102d7565b5f81815260056020526040808220805460ff1916600117905551600490610450908e908e906110be565b908152604051908190036020019020546001600160a01b03169050806104a85760405162461bcd60e51b815260206004820152600d60248201526c24b73b30b634b2103a37b5b2b760991b60448201526064016102d7565b5f196001600160a01b03821601610597575f544710156105015760405162461bcd60e51b8152602060048201526014602482015273496e73756666696369656e742062616c616e636560601b60448201526064016102d7565b5f805460405133916108fc9184818181858888f193505050503d805f8114610544576040519150601f19603f3d011682016040523d82523d5f602084013e610549565b606091505b50509050806105915760405162461bcd60e51b81526020600482015260146024820152732330b4b632b2103a379039b2b7321022ba3432b960611b60448201526064016102d7565b506106c8565b5f60048d8d6040516105aa9291906110be565b90815260200160405180910390205f9054906101000a90046001600160a01b031690505f816001600160a01b031663313ce5676040518163ffffffff1660e01b8152600401602060405180830381865afa15801561060a573d5f803e3d5ffd5b505050506040513d601f19601f8201168201806040525081019061062e91906110cd565b90506001600160a01b03821663a9059cbb3361064b84600a6111e1565b60015461065891906111ef565b6040516001600160e01b031960e085901b1681526001600160a01b03909216600483015260248201526044016020604051808303815f875af11580156106a0573d5f803e3d5ffd5b505050506040513d601f19601f820116820180604052508101906106c49190611206565b5050505b336001600160a01b03167f63c7e2646bff14c5c348a468049a5b3d8c135a2b57d17e228a0f6918ab4a061d6001548e8e6040516107079392919061124d565b60405180910390a260035f9054906101000a90046001600160a01b03166001600160a01b031663d9c427f3338e8e6040518463ffffffff1660e01b81526004016107539392919061126f565b5f604051808303815f87803b15801561076a575f80fd5b505af115801561077c573d5f803e3d5ffd5b50505050505050505050505050505050565b6002546001600160a01b031633146107b85760405162461bcd60e51b81526004016102d790611050565b6001600160a01b0381166108255760405162461bcd60e51b815260206004820152602e60248201527f4e657720636865636b496e20636f6e74726163742061646472657373206d757360448201526d74206e6f7420626520656d70747960901b60648201526084016102d7565b6003546040516001600160a01b038084169216907f98583a8cd47c77eb0de674e27fa7c33900494f87ea219049c967c0652d19a2cf905f90a3600380546001600160a01b0319166001600160a01b0392909216919091179055565b6002546001600160a01b031633146108aa5760405162461bcd60e51b81526004016102d790611050565b6001600160a01b03811661090c5760405162461bcd60e51b815260206004820152602360248201527f4e65772061646d696e2061646472657373206d757374206e6f7420626520656d60448201526270747960e81b60648201526084016102d7565b6002546040516001600160a01b038084169216907f7e644d79422f17c01e4894b5f4f588d331ebfa28653d42ae832dc59e38c9798f905f90a3600280546001600160a01b0319166001600160a01b0392909216919091179055565b6002546001600160a01b031633146109915760405162461bcd60e51b81526004016102d790611050565b5f600485856040516109a49291906110be565b908152604051908190036020019020546001600160a01b03169050806109fc5760405162461bcd60e51b815260206004820152600d60248201526c24b73b30b634b2103a37b5b2b760991b60448201526064016102d7565b5f196001600160a01b03821601610af55782471015610a545760405162461bcd60e51b8152602060048201526014602482015273496e73756666696369656e742062616c616e636560601b60448201526064016102d7565b5f826001600160a01b0316846108fc906040515f60405180830381858888f193505050503d805f8114610aa2576040519150601f19603f3d011682016040523d82523d5f602084013e610aa7565b606091505b5050905080610aef5760405162461bcd60e51b81526020600482015260146024820152732330b4b632b2103a379039b2b7321022ba3432b960611b60448201526064016102d7565b50610b8a565b5f60048686604051610b089291906110be565b9081526040519081900360200181205463a9059cbb60e01b82526001600160a01b03858116600484015260248301879052169150819063a9059cbb906044016020604051808303815f875af1158015610b63573d5f803e3d5ffd5b505050506040513d601f19601f82011682018060405250810190610b879190611206565b50505b816001600160a01b03167fb80d46a1fcb96f3896e038df66c1242504a8e49effecd0bf2473574707ca0121848787604051610bc79392919061124d565b60405180910390a25050505050565b6002546001600160a01b03163314610c005760405162461bcd60e51b81526004016102d790611050565b5f55565b7f19457468657265756d205369676e6564204d6573736167653a0a3332000000005f908152601c91909152603c902090565b5f805f80610c448686610c60565b925092509250610c548282610ca9565b50909150505b92915050565b5f805f8351604103610c97576020840151604085015160608601515f1a610c8988828585610d65565b955095509550505050610ca2565b505081515f91506002905b9250925092565b5f826003811115610cbc57610cbc611293565b03610cc5575050565b6001826003811115610cd957610cd9611293565b03610cf75760405163f645eedf60e01b815260040160405180910390fd5b6002826003811115610d0b57610d0b611293565b03610d2c5760405163fce698f760e01b8152600481018290526024016102d7565b6003826003811115610d4057610d40611293565b03610d61576040516335e2f38360e21b8152600481018290526024016102d7565b5050565b5f80807f7fffffffffffffffffffffffffffffff5d576e7357a4501ddfe92f46681b20a0841115610d9e57505f91506003905082610e23565b604080515f808252602082018084528a905260ff891692820192909252606081018790526080810186905260019060a0016020604051602081039080840390855afa158015610def573d5f803e3d5ffd5b5050604051601f1901519150506001600160a01b038116610e1a57505f925060019150829050610e23565b92505f91508190505b9450945094915050565b634e487b7160e01b5f52604160045260245ffd5b5f60208284031215610e51575f80fd5b813567ffffffffffffffff80821115610e68575f80fd5b818401915084601f830112610e7b575f80fd5b813581811115610e8d57610e8d610e2d565b604051601f8201601f19908116603f01168101908382118183101715610eb557610eb5610e2d565b81604052828152876020848701011115610ecd575f80fd5b826020860160208301375f928101602001929092525095945050505050565b5f60208284031215610efc575f80fd5b5035919050565b5f8083601f840112610f13575f80fd5b50813567ffffffffffffffff811115610f2a575f80fd5b602083019150836020828501011115610f41575f80fd5b9250929050565b5f805f805f60608688031215610f5c575f80fd5b853567ffffffffffffffff80821115610f73575f80fd5b610f7f89838a01610f03565b9097509550602088013594506040880135915080821115610f9e575f80fd5b50610fab88828901610f03565b969995985093965092949392505050565b6001600160a01b0381168114610fd0575f80fd5b50565b5f60208284031215610fe3575f80fd5b8135610fee81610fbc565b9392505050565b5f805f8060608587031215611008575f80fd5b843567ffffffffffffffff81111561101e575f80fd5b61102a87828801610f03565b90955093505060208501359150604085013561104581610fbc565b939692955090935050565b60208082526021908201527f4f6e6c792061646d696e2063616e2063616c6c20746869732066756e6374696f6040820152603760f91b606082015260800190565b6bffffffffffffffffffffffff198560601b16815282846014830137601492019182015260340192915050565b818382375f9101908152919050565b5f602082840312156110dd575f80fd5b815160ff81168114610fee575f80fd5b634e487b7160e01b5f52601160045260245ffd5b600181815b8085111561113b57815f1904821115611121576111216110ed565b8085161561112e57918102915b93841c9390800290611106565b509250929050565b5f8261115157506001610c5a565b8161115d57505f610c5a565b8160018114611173576002811461117d57611199565b6001915050610c5a565b60ff84111561118e5761118e6110ed565b50506001821b610c5a565b5060208310610133831016604e8410600b84101617156111bc575081810a610c5a565b6111c68383611101565b805f19048211156111d9576111d96110ed565b029392505050565b5f610fee60ff841683611143565b8082028115828204841417610c5a57610c5a6110ed565b5f60208284031215611216575f80fd5b81518015158114610fee575f80fd5b81835281816020850137505f828201602090810191909152601f909101601f19169091010190565b838152604060208201525f611266604083018486611225565b95945050505050565b6001600160a01b03841681526040602082018190525f906112669083018486611225565b634e487b7160e01b5f52602160045260245ffdfea2646970667358221220f3147a56fdebf5fa995f337ecf909b5c42d5ed9a4f6c8760bc83f76546d57daf64736f6c63430008190033",
    "linkReferences": {}
  },
  "methodIdentifiers": {
    "ETH_ADDRESS()": "a734f06e",
    "admin()": "f851a440",
    "checkIn()": "183ff085",
    "etherAmount()": "4935ce6f",
    "getToken(string,bytes32,bytes)": "103fc452",
    "setCheckInContract(address)": "73acd5bb",
    "setEtherAmount(uint256)": "dd74885d",
    "setTokenAmount(uint256)": "0749469f",
    "tokenAmount()": "eec7faa1",
    "tokens(string)": "04c2320b",
    "transferAdmin(address)": "75829def",
    "usedNonces(bytes32)": "feb61724",
    "withdrawToken(string,uint256,address)": "d2b9c6be"
  },
  "id": 70
}